:100000000C943D000C9400000C9400000C94000033
:100010000C9400000C9400000C9400000C94000060
:100020000C9400000C9400000C9400000C94000050
:100030000C9400000C9400000C9400000C94000040
:100040000C9400000C9400000C9400000C94000030
:100050000C940000693D000080C001002D4E414E0F
:1000600000494E4600000300600254000200630293
:100070005800010067025A000000F894EE27ECBB1C
:10008000F1E0FBBFEBBFE5BF8DE0A2E0BB27ED9346
:100090008A95E9F780E098E0A0E6ED930197E9F70B
:1000A000E6E6F0E085919591009761F0A591B59114
:1000B00005901590BF01F00105900D920197E1F7B1
:1000C000FB01F0CFEFE5EDBFE8E0EEBFC0E6D2E028
:1000D0000C946A00A097EFEFEABBA0E18FD001E09B
:1000E0000F5FE02FEE0F1E2F13601570E3E01E2749
:1000F00053D0E0E0EA93A0E042D0E12FF0E0FA93A1
:10010000EA93DE0112960E942C01FE017096FA938A
:10011000EA93A0E6B2E00E946B01FE017096FA93AA
:10012000EA93DE0112960E945A01DE01509655D0E4
:10013000AAE0B0E00E948601D2CFFFCFAA93EBB332
:10014000EF70AE2FE881E07FEA2BEBBB8BE18A9565
:10015000F1F7DA9A8BE18A95F1F7DA988BE18A95D3
:10016000F1F778C0AA93A881E9DFE881E295E883F6
:10017000A881E4DF88EC90E00197F1F76BC0AA93C7
:10018000E881F0E0ED59FD4FE081A981AE0FEADF93
:100190005980488022960895A2E00E947801ACE040
:1001A000E1DFA1E00E947801E0E04E2E5E2E08958E
:1001B000AA93A881AA3011F0571448F0E0E0EA931E
:1001C0004394A42DDCDFA881AA3009F443C05394E2
:1001D000D89AA881C7DFD8983DC0BA93AA931A933A
:1001E000A981BA81ED91A983BA831E2FE03019F05D
:1001F000A12FDEDFF5CF188123960895AA93EAB3E5
:10020000E06FEABBD29AD09AD19ADA98D898D99866
:100210007880E881E058E0936502E881E054E0935B
:100220006602A4E1B0E00E9486010E947E010E9465
:100230007E010E947E01A0E281DF80E991E00197CA
:10024000F1F7A8E28FDFA4E08DDFA5E88BDFA6E061
:1002500089DFA2DF21960895BA93AA93A991B99153
:10026000E991F99130962AF4E095F09531966DE296
:100270006D93E89480E197E20DD088EE93E00AD088
:1002800084E6992707D08AE005D06E2F10D0662724
:100290006C9308956627E817F90720F06395E81B2B
:1002A000F90BC9F7662311F416F008956894605DA0
:1002B0006D930895BA93AA93E991F991A991B9918F
:1002C000CD016D916623E9F7119761916D936623D6
:1002D000E1F7FC010895BA93AA93E991F991A991E4
:1002E000B991CD0161916D936623E1F7FC01089509
:1002F0000E94B200A3E0B0E00C948601A0E30E944B
:100300009E0080E991E00197F1F70895109639F089
:1003100080EA9FE00197F1F7A8951197C9F7089532
:00000001FF
