:020000000C945E
:100002002F000C9400000C9400000C9400000C943F
:1000120000000C9400000C9400000C9400000C945E
:1000220000000C9400000C9400000C9400000C944E
:1000320000000C9400000C9400000C9400000C943E
:1000420000000C9400000C9400000C9400000C942E
:1000520000003F065B4F666D7D077F6FF894EE27C9
:10006200ECBBF1E0FBBFEBBFE5BF8DE0A2E0BB273D
:10007200ED938A95E9F780E098E0A0E6ED93019789
:10008200E9F7EFE5EDBFE8E0EEBFC0E6D2E00C94A1
:100092004A002A978AE0A0E0B0E0E4E5F0E00E949E
:1000A2007200EFEFE7BBE0E0E8BB10E01A3068F463
:1000B200E12FF0E0DE01AE0FBF1FEC91E8BBA0E93B
:1000C200B1E00E9468001F5FF1CFEFCFFFCF109623
:1000D20039F080EA9FE00197F1F7A8951197C9F7E7
:1000E2000895AC0FBD1F05900D928A95E1F7089512
:00000001FF
