:0C0000000C942A000C9400000C940000EA
:10000C000C9400000C9400000C9400000C94000064
:10001C000C9400000C9400000C9400000C94000054
:10002C000C9400000C9400000C9400000C94000044
:10003C000C9400000C9400000C9400000C94000034
:10004C000C9400000C940000F894EE27ECBBF1E04B
:10005C00FBBFEBBFE5BF8DE0A2E0BB27ED938A951C
:10006C00E9F780E098E0A0E6ED930197E9F7EFE57A
:10007C00EDBFE8E0EEBFC0E6D2E00C94450010E026
:10008C00EFEFE1BBE1E0E2BBE0E0E6BFC89B11E0D3
:10009C00C99B12E0113041F4E2B3EE0FE2BBE2B3C4
:1000AC00E03011F4E1E0E2BB123051F4E2B3F0E0E5
:1000BC00F595E795E2BBE2B3E03011F4E0E8E2BB82
:1000CC00A4E6B0E00E946C00E1CFFFCF109639F0AF
:1000DC0080EA9FE00197F1F7A8951197C9F7089569
:00000001FF
